S00C00004D43414E2E73726563F9
S214400000303240204D1B4000FD1B4000FD1B400091
S214400010FD1B4000FD1B4000FD1B40000000000093
S214400020000000000000000000000000FD1B400033
S214400030FD1B400000000000FD1B40009D364000B8
S214400040FD1B4000FD1B4000FD1B4000FD1B40000B
S214400050FD1B4000FD1B4000FD1B4000FD1B4000FB
S214400060FD1B400000000000E1124000F912400075
S21440007011134000FD1B4000FD1B4000FD1B4000CF
S2144000802913400041134000FD1B4000FD1B40006B
S214400090FD1B4000FD1B4000FD1B4000FD1B4000BB
S2144000A0FD1B4000FD1B4000FD1B4000FD1B4000AB
S2144000B0FD1B4000FD1B4000FD1B4000FD1B40009B
S2144000C0FD1B4000FD1B4000FD1B400095294000E5
S2144000D0652B4000992C40006D2E4000FD1B4000D3
S2144000E0FD1B4000FD1B4000FD1B4000FD1B40006B
S2144000F0FD1B4000FD1B4000FD1B4000FD1B40005B
S214400100FD1B4000FD1B4000FD1B4000FD1B40004A
S214400110FD1B400000000000000000000000000042
S214400120FD1B4000FD1B4000FD1B4000FD1B40002A
S214400130FD1B4000FD1B4000FD1B4000FD1B40001A
S214400140FD1B4000FD1B4000FD1B4000FD1B40000A
S214400150FD1B400000000000000000000000000002
S214400160000000000000000010B5054C237833B9AD
S214400170044B13B10448AFF300800123237010BD35
S214400180C0094020000000009C6A40000C4B43B170
S2144001900C480D4910B5AFF300800C48036823B9EE
S2144001A010BD0A48036833B97047094B002BF7D097
S2144001B0BDE810401847064B002BF5D0184700BF47
S2144001C0000000009C6A4000C40940209C6A400031
S2144001D00000000080B582B000AF78607B68072BD7
S2144001E031D801A252F823F04502400009024000EF
S2144001F0110240001902400021024000290240003E
S214400200310240003B0240000020114B98471AE064
S21440021001200F4B984716E000200E4B984712E0FF
S21440022010200C4B98470EE020200A4B98470AE0D7
S2144002303E210020084B984705E03E210120064B12
S214400240984700E000BF00BF0837BD4680BD00BFEE
S21440025059144000C51440003515400080B582B0A2
S21440026000AF78607B68072B26D801A252F823F0AF
S214400270910240009502400095024000A7024000CF
S214400280A7024000A7024000A7024000A702400085
S214400290012312E00B4B98470346002B14BF012363
S2144002A00023DBB209E0084B98470346002B14BFF7
S2144002B001230023DBB200E0002318460837BD4682
S2144002C080BD00BF91144000AD15400080B483B09F
S2144002D000AF78607B68072B25D801A252F823F040
S2144002E001034000070340000D0340001303400095
S2144002F0170340001B0340001F0340002303400039
S2144003004FF4FA4310E04FF400430DE04FF400433F
S2144003100AE0084B08E0084B06E0084B04E0074BB1
S21440032002E0064B00E0002318460C37BD465DF859
S214400330047B704700093D0000127A00001BB7009E
S21440034080B582B000AF0346FB7100BFFB7918460C
S214400350054B9847034683F00103DBB2002BF5D1EB
S21440036000BF0837BD4680BD5D02400080B586B000
S21440037000AFF8607A603B600B46FB727B68002BF0
S21440038007D13B68002B04D1FB684FF470021A601B
S21440039019E0FB7A18460E4B984702467B68B2FB3C
S2144003A0F3F37B617B693A6802FB03F37B613B684E
S2144003B0013B1A04074B13407A68D2B2134343F406
S2144003C07C52FB681A6000BF1837BD4680BD00BF30
S2144003D0CD0240000000FF0780B582B000AF7860D5
S2144003E039603B68002B08D1094B9847094A7B681F
S2144003F01B6843F00053936205E0064A7B681B681F
S21440040043F48033D36100BF0837BD4680BD00BF8C
S214400410C915400000060E4080B582B000AF786037
S2144004207B68002B03D1054B9847034602E0044BFC
S2144004309847034618460837BD4680BDE515400038
S2144004402916400080B582B000AF0346FB71FB79A9
S214400450033B042B08D8FB791846064B9847FB7994
S2144004601846054B984700E000BF00BF0837BD461A
S21440047080BD00BFD50140004103400080B582B03A
S21440048000AF786000BF7868044B98470346002B5F
S214400490F9D0002318460837BD4680BD19044000F1
S2144004A080B500AF0620054B9847024613469B0092
S2144004B013449A001344184680BD00BFCD02400046
S2144004C080B500AF024B98470346184680BD00BF34
S2144004D0A104400090B583B000AF1348134B984733
S2144004E00620134B9847381D192301220621114C2C
S2144004F0A0473B1D002118460F4B984700200F4B46
S214400500984702200E4B984700200E4B98470E4BBC
S21440051098470E4B984703465B081846034B984748
S21440052000BF0C37BD4690BD80D1F0086D1D400021
S214400530450440006D034000D90340007D04400060
S21440054059134000D5134000051C4000C10440002C
S21440055080B582B000AF78607868034B984700BF9C
S2144005600837BD4680BD00BF4516400080B500AF89
S2144005700A20084B98470B20064B98470C20054B03
S21440058098471020034B98471120024B984700BFCE
S21440059080BD00BF5105400080B489B000AF786090
S2144005A07B68FB61FB69BB61BB695A09FB697B6180
S2144005B07B6903F01F03012101FA03F33A61FB60F4
S2144005C03B69BB60BA68064B13445B021A46FB683D
S2144005D0536000BF2437BD465DF8047B704700BFBC
S2144005E00707200080B48DB000AF786039607B6824
S2144005F0FB623B68BB62FB6A7B627B6A5A09FB6AAA
S2144006003B623B6A03F01F03012101FA03F3FA61E0
S214400610BB61BB6A7B61FB693B613A69374B1344FC
S2144006205B02FB607B6903F00803002B03D0FB688A
S214400630BA695A6602E0FB68BA691A667B6903F0D3
S2144006401003002B04D0FB68BA69C3F8942003E07B
S214400650FB68BA69C3F890207B6903F02003002B3F
S21440066003D0FB68BA691A6502E0FB68BA695A6546
S2144006707B6903F0C003002B03D0FB68BA691A629B
S21440068002E0FB68BA695A627B6903F08003002B7C
S21440069004D0FB68BA69C3F8842003E0FB68BA69F3
S2144006A0C3F880207B6903F00103002B06D0FB686B
S2144006B01A6FBB691A43FB681A6706E0FB681A6F35
S2144006C0BB69DB431A40FB681A677B6903F0020389
S2144006D0002B06D0FB685A6FBB691A43FB685A6703
S2144006E006E0FB685A6FBB69DB431A40FB685A67F3
S2144006F000BF3437BD465DF8047B704707072000CF
S21440070080B48DB000AF78600B46FB707B68FB62B0
S214400710FB7887F82B30FB6A7B627B6A3B623B6ADE
S2144007205B09FB61FA69174B13445B02BB6197F8A0
S2144007302B30012B09D1FB6A7B617B6903F01F03D9
S21440074001229A40BB691A610CE097F82B30002BC7
S21440075008D1FB6A3B613B6903F01F0301229A40C4
S214400760BB695A61FB6AFB60FB6803F01F0301220A
S2144007709A40BB69C3F8A02000BF3437BD465DF839
S214400780047B70470707200080B48BB000AF7860CA
S2144007900B46FB707B687B62FB7887F823307B6A6E
S2144007A0FB61FB69BB61BB695B097B617A69104B86
S2144007B013445B023B6197F82330002B09D07B6AD9
S2144007C0FB60FB6803F01F0301229A403B691A63F3
S2144007D008E07B6ABB60BB6803F01F0301229A40B7
S2144007E03B695A6300BF2C37BD465DF8047B7047B3
S2144007F00707200080B48DB000AF78600B46FB70D2
S2144008007B68FB62FB7887F82B30FB6A7B627B6AEF
S2144008105A09FB6A3B623B6A03F01F03012101FA57
S21440082003F3FA61BB6197F82B30FB75FB693B61BC
S2144008303A69234B13445B02FB60FB7D013B032B71
S2144008402ED801A252F823F07D0840008F084000C1
S214400850590840006B084000FB68BA69C3F8C420DA
S214400860FB68BA69C3F8D0201FE0FB68BA69C3F8D2
S214400870C420FB68BA69C3F8D42016E0FB68BA699E
S214400880C3F8C020FB68BA69C3F8D0200DE0FB6807
S214400890BA69C3F8C020FB68BA69C3F8D42004E03C
S2144008A0FB68BA69C3F8B42003E0FB68BA69C3F8CA
S2144008B0B02000BF3437BD465DF8047B704700BFAC
S2144008C00707200080B400AFBFF34F8FBFF36F8F92
S2144008D00C4A0C4BD3F8903223F00103C2F8903206
S2144008E0084A084BD3F8943223F00103C2F89432F6
S2144008F0BFF34F8FBFF36F8F00BFBD465DF8047BDD
S214400900704700BF00ED00E080B500AF2E4B4FF4BF
S21440091000425A602D4B2E4A5A602C4B2D4A5A6044
S2144009202D4B98472D4B9847012148202C4B9847F4
S214400930012148202B4B984700210B20284B9847F5
S21440094088210B20284B984702210B20274B98479D
S21440095000211520244B98471520254B9847254ABB
S214400960244BD3F8143143F01003C2F8143103215A
S21440097024201D4B984724201D4B984700212320B8
S214400980194B984723201A4B984700212220164B94
S21440099098472220164B984701218020104B9847B5
S2144009A0012181200E4B984702214C200E4B984740
S2144009B04C200F4B984702214E200B4B98474E2019
S2144009C00B4B984700BF80BD50180E40000C0E40A1
S2144009D00C08005A0C07005AC50840006D05400038
S2144009E00107400089074000E5054000F507400044
S2144009F0990540000080084080B483B000AF78601E
S214400A007B68484A93423DD1474A4FF6FC731340B1
S214400A1043F400127B68C3F88420444A4FF6FC73C4
S214400A20134043F480127B68C3F88820404A4FF650
S214400A30FC73134043F480127B68C3F8A0203D4A01
S214400A404FF6FC73134043F480127B68C3F8B02023
S214400A50394A4FF6FC7313407A68C2F8AC30374BCD
S214400A604FF6FC721A40364B13437A68C2F8C030D1
S214400A70344A4FF6FC73134043F400327B68C3F8A5
S214400A80F02040E07B68304A93423CD12F4A4FF6F4
S214400A90FC73134043F400127B68C3F884202C4A4E
S214400AA04FF6FC73134043F480127B68C3F88820EB
S214400AB0284A4FF6FC73134043F480127B68C3F811
S214400AC0A020254A4FF6FC73134043F480127B68FF
S214400AD0C3F8B020214A4FF6FC7313407A68C2F838
S214400AE0AC301F4B4FF6FC721A40154B13437A68D6
S214400AF0C2F8C0301B4A4FF6FC73134043F4003232
S214400B007B68C3F8F0207B680022C3F8BC207B6873
S214400B100022C3F8C82000BF0C37BD465DF8047BF2
S214400B20704700BF000003401C0C40209C0C402037
S214400B30EC094020EC0A4020DC094020EC0B402029
S214400B40000001010C0C4020004003405C0F402098
S214400B50DC0F40202C0D40202C0E40201C0D402049
S214400B602C0F40204C0F402080B483B000AF7860FC
S214400B7039607B68654ADA613B68DB7B1B0603F0BD
S214400B80F852634B13437A68D3603B689B7B002BD9
S214400B9005D07B68DB6843F400027B68DA607B68DC
S214400BA05B693A6852781A437B685A613B689B781F
S214400BB0002B05D07B689B6943F480427B689A6132
S214400BC03B685B7983F00103DBB2002B05D07B6882
S214400BD09B6943F040027B689A613B689B79002B97
S214400BE005D07B689B6943F010027B689A613B683E
S214400BF01B7A1B0403F4702343F001027B681A62DD
S214400C003B685B891B041A463B681B7B13433A6868
S214400C10527B1A437B689A623B681B7C1B0103F03D
S214400C2030023B685B7C9B0003F00C031A437B68F6
S214400C30C3F880203B689B7C002B07D07B68D3F8AA
S214400C40803043F002027B68C3F880203B68DB7C40
S214400C50002B07D07B68D3F8803043F001027B68D6
S214400C60C3F880203B685A697B68C3F890203B688D
S214400C701B7E002B07D07B68D3F8A03043F00042A1
S214400C807B68C3F8A0207B68D3F8A0203B685B7ED7
S214400C901B0603F0FE431A437B68C3F8A0203B685C
S214400CA09B7E002B07D07B68D3F8B03043F00042E1
S214400CB07B68C3F8B0207B68D3F8B0203B68DB7E07
S214400CC01B0603F0FE431A437B68C3F8B0203B681C
S214400CD01B7F002B07D07B68D3F8C03043F08042A0
S214400CE07B68C3F8C0207B68D3F8F0203B685B7F06
S214400CF01B0603F07C531A437B68C3F8F02000BF02
S214400D000C37BD465DF8047B704700BF730A07008A
S214400D10730A050080B582B000AF78607B681B68B8
S214400D20094A934203D12320084B984707E07B6843
S214400D301B68074A934202D12520044B984700BFC0
S214400D400837BD4680BD00BF000003404516400042
S214400D500040034080B584B000AFF860B9607A6068
S214400D60FB68BA681A600520144B98479021052006
S214400D70134B98470520134B9847F868124B9847F3
S214400D80BB689B6943F00202BB689A61B8680F4B28
S214400D9098477968B8680E4B9847BB680322DA656F
S214400DA0BB684FF0FF32C3F8E020BB684FF0FF321D
S214400DB0C3F8E42000BF1037BD4680BD5917400039
S214400DC08116400031174000150D4000F9094000DB
S214400DD0690B400080B483B000AF78607B681B68C6
S214400DE07A681268926922F001029A6100BF7B68B5
S214400DF01B689B6903F00103002BF8D100BF0C373A
S214400E00BD465DF8047B704780B483B000AF786021
S214400E107B681B687A681268926942F001029A61A0
S214400E2000BF7B681B689B6903F00103002BF8D06A
S214400E3000BF0C37BD465DF8047B704780B485B074
S214400E4000AFF860B9607A60FB681B680F4A93424F
S214400E5007D1BB681A680E497B6841F823200023F7
S214400E600EE0FB681B680B4A934207D1BB681A68C2
S214400E7009497B6841F82320002301E06FF007030F
S214400E8018461437BD465DF8047B704700000340A3
S214400E901C0C4020004003405C0F402080B485B0CE
S214400EA000AFF860B9607A60FB681B68164A9342E8
S214400EB00ED1BB681A6815497B6841F83320BB6879
S214400EC05A6812497B68DB000B445A60002315E0E1
S214400ED0FB681B680E4A93420ED1BB681A680D49E0
S214400EE07B6841F83320BB685A680A497B68DB0058
S214400EF00B445A60002301E06FF00703184614378E
S214400F00BD465DF8047B7047000003409C0C4020C3
S214400F1000400340DC0F402080B584B000AFF8604E
S214400F20B9607A60FB681B68114A93420AD17B68B5
S214400F301B01104A134410221946B8680E4B9847B6
S214400F40002311E0FB681B680C4A93420AD17B6879
S214400F501B010B4A134410221946B868064B9847A3
S214400F60002301E06FF0070318461037BD4680BDEA
S214400F7000000340DC094020A53E400000400340FE
S214400F801C0D402080B584B000AFF860B9607A6030
S214400F90FB681B68114A93420AD17B681B01104AC2
S214400FA0134410221946B8680E4B9847002311E0A8
S214400FB0FB681B680C4A93420AD17B681B010B4AAC
S214400FC0134410221946B868064B9847002301E0A0
S214400FD06FF0070318461037BD4680BD000003403B
S214400FE0EC094020A53E4000004003402C0D402028
S214400FF080B584B000AFF860B9607A60FB681B6863
S214401000114A93420AD17B681B01104A13441022AE
S2144010101946B8680E4B9847002311E0FB681B68DA
S2144010200C4A93420AD17B681B010B4A1344102298
S2144010301946B868064B9847002301E06FF007034F
S21440104018461037BD4680BD00000340EC0A4020DD
S214401050A53E4000004003402C0E402080B487B0A0
S21440106000AFF860B9607A60FB681B682F4A93420D
S21440107027D1BB681A682E497B681B010B441A604F
S214401080BB685A682A497B681B010B4404331A60C4
S21440109000237B6110E0BA687B69134408331978F3
S2144010A0234A7B681B011A447B69134408330A466B
S2144010B01A707B6901337B617B69072BEBD9002370
S2144010C02EE0FB681B681B4A934227D1BB681A6810
S2144010D019497B681B010B441A60BB685A6816495D
S2144010E07B681B010B4404331A6000237B6110E0CD
S2144010F0BA687B691344083319780F4A7B681B012A
S2144011001A447B69134408330A461A707B690133D4
S2144011107B617B69072BEBD9002301E06FF0070367
S21440112018461C37BD465DF8047B704700000340F8
S214401130EC0B4020004003402C0F402080B586B08A
S21440114000AFF860B9607A6000237B61FB68002BD3
S21440115012D04FF0FF3313E00B4B1B680B4A12685C
S214401160B96810469847BB680133BB607B6901335A
S2144011707B617B68013B7B607B68002BECDC7B699A
S21440118018461837BD4680BD1C114020241140200B
S21440119080B586B000AFF860B9607A6000237B61A6
S2144011A0FB68012B1ED0FB68022B1BD0FB68032B71
S2144011B018D04FF0FF3319E00E4B1A680E4B1868E4
S2144011C0BB68591CB9601B78194690470346002BEC
S2144011D002DA4FF0FF3309E07B6901337B617B68BD
S2144011E0013B7B607B68002BE6D17B69184618374D
S2144011F0BD4680BD201140202411402080B483B0DD
S21440120000AF78607B68DB6C18460C37BD465DF8EF
S214401210047B704780B483B000AF78607B689B6C7B
S21440122018460C37BD465DF8047B704780B584B0E1
S21440123000AF786039607868264B9847F8607868E1
S214401240254B98470246FB681340FB60FB68002B23
S2144012503CD00023BB6034E0204ABB681B011344EB
S2144012601A683B689A4226D11C4ABB681B01134445
S21440127004331A68FB681340002B1CD0174ABB681F
S2144012801B0113440C331B681449BA6812010A4404
S21440129010681249BA6812010A44043212681146AC
S2144012A098470E4ABB681B01134404331B68DB4354
S2144012B0FA681340FB60BB680133BB60BB68062B13
S2144012C003D8FB68002BC7D100E000BF00BF103733
S2144012D0BD4680BDFD114000151240005C10402008
S2144012E080B500AF0A210248024B984700BF80BD38
S2144012F0000E0E402D12400080B500AF0B21024874
S214401300024B984700BF80BD00100E402D12400093
S21440131080B500AF0C210248024B984700BF80BD05
S21440132000120E402D12400080B500AF102102483A
S214401330024B984700BF80BD00140E402D1240005F
S21440134080B500AF11210248024B984700BF80BDD0
S21440135000160E402D12400080B483B000AF786077
S2144013607B68013B032B1AD801A252F823F000BF3A
S21440137081134000871340008F13400097134000AE
S21440138000237B600EE04FF480737B600AE04FF4EE
S21440139040737B6006E04FF400737B6002E00023FE
S2144013A07B6000BF0A490A4B1B6B23F440727B6884
S2144013B013430B6300BF064B9B6E03F00803002BE2
S2144013C0F9D000BF0C37BD465DF8047B704700BFC0
S2144013D000060E4080B485B000AF78601D491D4BB6
S2144013E01B6B23F070027B6813430B634FF48053F0
S2144013F0FB6007E0FB68002B01D1012323E0FB687C
S214401400013BFB60134B9B6E03F00803002BF1D0AF
S214401410104A104B1B6B23F0030343F00203136385
S2144014204FF48053FB6007E0FB68002B01D101239B
S21440143009E0FB68013BFB60064B9B6E03F008032C
S214401440002BF1D0002318461437BD465DF8047BC8
S214401450704700BF00060E4080B483B000AF78608F
S2144014607B68012B05D10749064B9A68064B134308
S2144014708B60044B054A1A6000BF0C37BD465DF8CA
S214401480047B704710180E40000010A5080000A509
S21440149080B400AF094B5B6903F08003002B07D094
S2144014A0074B9B6E03F08003002B01D0012300E026
S2144014B000231846BD465DF8047B704710180E4062
S2144014C000060E4080B483B000AF78601549154BD7
S2144014D01A6A154B13430B6200BF124B9B6E03F404
S2144014E00033002BF9D00F490E4B1A6A0F4B1340AE
S2144014F07A68134343F45C130B6200BF094B9B6E40
S21440150003F40033002BF9D00649064B1A6A084B01
S214401510134043F45C130B6200BF0C37BD465DF8C6
S214401520047B704700060E40080037008FFFC8FF58
S214401530FFFFC8FE80B483B000AF786039607B6838
S214401540002B08D01349134B1B6A134A1A40134BFF
S21440155013430B6218E00F490E4B1A6A104B1340A8
S2144015603A68120292B21A430E4B13430B6200BF04
S214401570084B9B6E03F00103002BF9D00549054B41
S2144015801A6A094B13430B6200BF0C37BD465DF821
S214401590047B704700060E40FCFFC8FE0200370181
S2144015A0FCFFC8FF010037000000370180B400AFE1
S2144015B0044B9B6E03F480331846BD465DF8047BAF
S2144015C0704700BF00060E4080B400AF044B4FF09B
S2144015D000529A6200BFBD465DF8047B704700BF6C
S2144015E000060E4080B400AF044B9B6E03F002032F
S2144015F01846BD465DF8047B704700BF00060E40A7
S21440160080B400AF074B4FF44412DA6100BF054B7D
S2144016109B6E03F04003002BF9D000BFBD465DF83B
S214401620047B704700060E4080B400AF044B9B6EB0
S21440163003F040031846BD465DF8047B704700BF84
S21440164000060E4080B485B000AF78600B4A7B68D9
S21440165003F07F03C2F80C31084BD3F80C3143F04B
S2144016601023FB60054AFB68C2F80C31002318467D
S2144016701437BD465DF8047B704700BF00060E4039
S21440168080B485B000AF7860396012493B6843F05B
S21440169002027B68103341F823204FF48053FB60EE
S2144016A007E0FB68002B01D101230DE0FB68013BFE
S2144016B0FB60084B9A6E4FF480717B6801FA03F327
S2144016C01340002BEDD0002318461437BD465DF876
S2144016D0047B704700060E4080B485B000AF78604B
S2144016E0396012493B6843F003027B68103341F887
S2144016F023204FF48053FB6007E0FB68002B01D1AA
S21440170001230DE0FB68013BFB60084B9A6E4FF4EB
S21440171080717B6801FA03F31340002BEDD0002361
S21440172018461437BD465DF8047B704700060E40E9
S21440173080B483B000AF7860064A4FF480717B680F
S21440174001FA03F3136000BF0C37BD465DF8047B17
S214401750704700BF00060E4080B483B000AF78608C
S214401760064A4FF480717B6801FA03F3536000BF6A
S2144017700C37BD465DF8047B704700BF00060E4040
S21440178080B485B000AF786039600023FB607B682A
S214401790AC221A603B681A683B685B68B2FBF3F39E
S2144017A01B09FB60FB68002B03D0FB68B3F5803F4A
S2144017B001D301230AE07B68FA681A623B689A689C
S2144017C07B685A607B6850221A600023184614379C
S2144017D0BD465DF8047B704780B483B000AF786048
S2144017E00B46FB707B685B6903F00203002B01D15C
S2144017F0012303E0FA787B68DA61002318460C3749
S214401800BD465DF8047B704780B483B000AF786017
S21440181039607B685B6903F00103002B01D101232B
S21440182005E07B689B69DAB23B681A70002318466D
S2144018300C37BD465DF8047B704780B489B000AF76
S214401840F860B9607A60BB681A017B689A4202D831
S2144018501023FB6101E00823FB617B68DA00FB692B
S214401860B96801FB03F35B081A44FB69B96801FBDE
S21440187003F3B2FBF3F3BB61BB69DB087B61BB6977
S21440188003F007033B617B69002B03D07B69B3F50C
S214401890803F01D301230FE0FB69082B05D1FB688D
S2144018A05B6843F40022FB685A603B691A047B6914
S2144018B01A43FB681A62002318462437BD465DF873
S2144018C0047B704780B582B000AF786078680D4B77
S2144018D098477B6800225A607B6800225A627B6881
S2144018E000229A627868084B98477868074B984772
S2144018F07868074B98477868064B984700BF083784
S214401900BD4680BDA51A4000B7194000EB194000FF
S214401910051A4000211A400080B584B000AFF86038
S214401920B9607A60F8681A4B98471A4B00221A60DA
S214401930BB68002B09D0BB681B687A681946F868F4
S214401940154B98470346002B01D001231BE0BB688C
S2144019505A68BB689B681A43BB681B691A43BB68D6
S214401960DB681A430B4B1B6813430A4A1360094B48
S2144019701B68084A1360FB685A68064B1B681A4384
S214401980FB685A60002318461037BD4680BD00BF2E
S214401990C5184000CC1040203B18400080B483B0AF
S2144019A000AF78607B6840221A6000BF0C37BD46A7
S2144019B05DF8047B704780B483B000AF78607B6886
S2144019C088221A6000BF0C37BD465DF8047B70471E
S2144019D080B483B000AF78607B6810221A6000BF86
S2144019E00C37BD465DF8047B704780B483B000AFCB
S2144019F078607B6824221A6000BF0C37BD465DF8CD
S214401A00047B704780B483B000AF78607B684FF447
S214401A1080721A6000BF0C37BD465DF8047B704785
S214401A2080B483B000AF78607B684FF400221A60C1
S214401A3000BF0C37BD465DF8047B704780B483B06A
S214401A4000AF786039607B685B6903F00203002B67
S214401A5001D1012305E03B68C3F308027B68DA61E5
S214401A60002318460C37BD465DF8047B704780B4AB
S214401A7083B000AF786039607B685B6903F0010330
S214401A80002B01D1012306E07B689B69C3F3080263
S214401A903B681A60002318460C37BD465DF8047B49
S214401AA07047000080B483B000AF78607B68044A1B
S214401AB0C3F8E42000BF0C37BD465DF8047B704792
S214401AC00041535580B483B000AFEFF310837B6082
S214401AD07B68002B0CBF01230023DBB23B6072B651
S214401AE0BFF35F8F044B00221A703B6818460C37D2
S214401AF0BD465DF8047B70470000402080B483B04C
S214401B0000AF78607B68002B14BF01230023DBB254
S214401B1018460C37BD465DF8047B704780B582B0EA
S214401B2000AF78607868074B98470346002B05D08F
S214401B30054B01221A70BFF35F8F62B600BF0837AD
S214401B40BD4680BDFD1A40000000402080B584B0F0
S214401B5000AF1E4BFB601E4BBB60FA68BB689A42E8
S214401B600CD007E0BB681A1DBA60FA68111DF96010
S214401B7012681A60BB68174A9342F3D3164BBB6091
S214401B8004E0BB681A1DBA6000221A60BB68134A9C
S214401B909342F6D3124BFB60124AFB6823F07F0356
S214401BA09360114B98477860104A104B1B6843F47B
S214401BB070031360BFF34F8FBFF36F8F78680C4B83
S214401BC098470C4B98470C4B9847FEE79C6A40005A
S214401BD000004020C0094020C0094020301240206C
S214401BE00000400000ED00E0C51A400088ED00E02F
S214401BF01D1B4000BD384000D137400080B400AFC8
S214401C00FEE7000080B400AF524B1B6B03F00303AB
S214401C10012B14D0012B02D3022B38D07AE04E4B46
S214401C205B6903F08003002B04D04C4B4FF400421A
S214401C301A606FE0494B4FF4FA421A606AE0454B2F
S214401C401B6A03F08073002B03D0444B444A1A604F
S214401C5060E0424B434A1A603E4B1B6A03F07003F7
S214401C60102B04D0202B08D0002B0ED00EE03B4B80
S214401C701B685B00394A136008E0384B1A68134605
S214401C805B001344354A136000E000BF42E0314B2E
S214401C901B6A03F08073002B03D0304B304A1A6027
S214401CA01CE02E4B2F4A1A602A4B1B6A03F0700327
S214401CB0102B04D0202B08D0002B0ED00EE0274B44
S214401CC01B685B00254A136008E0244B1A681346DD
S214401CD05B001344214A136000E000BF1D4B1B6BA2
S214401CE003F00303022B14D11A4B9B6A1B0CC3F35D
S214401CF00A030133194A126802FB03F3174A1360BA
S214401D00144B9B6ADBB2154A1268B2FBF3F3134AD4
S214401D10136000BF0F4B1B6B03F07003702B08D192
S214401D200E4B1B68104AA2FB03235B080B4A13604A
S214401D300AE0084B1B6B1B0903F00703074A1268AF
S214401D4022FA03F3054A136000BFBD465DF8047BE4
S214401D50704700BF00060E4010180E40040040209A
S214401D60001BB70000093D00ABAAAAAA80B483B006
S214401D7000AF78607B681D4A934204D81C4B4FF0F6
S214401D8080621A602BE07B681A4A934203D8184B4D
S214401D90194A1A6023E07B68184A934203D8144BCA
S214401DA0174A1A601BE07B68164A934203D8104BCA
S214401DB0154A1A6013E07B68144A934204D80C4BC9
S214401DC04FF004221A600AE07B68114A934203D817
S214401DD0074B104A1A6002E0054B0F4A1A6000BFD4
S214401DE00C37BD465DF8047B704700BFBFF35E010D
S214401DF0000C0E407FE7BD02000100043FDB1C04E0
S214401E0000020004FFCE7B0500030004BFC2DA06D2
S214401E107FB63908000500040006000480B485B08B
S214401E2000AF7860104BFB60104B1B68002B02D154
S214401E300E4B0F4A1A600D4B1B68BB60BA687B6836
S214401E401A44FB689A4202DD4FF0FF3306E0074B28
S214401E501A687B681344054A1360BB6818461437F3
S214401E60BD465DF8047B7047FCFF4520D0104020FF
S214401E703034402080B483B000AF78604FF0FF33FA
S214401E8018460C37BD465DF8047B704780B483B077
S214401E9000AF786039603B684FF400525A600023C8
S214401EA018460C37BD465DF8047B704780B483B057
S214401EB000AF7860012318460C37BD465DF8047BBA
S214401EC0704780B485B000AFF860B9607A60002390
S214401ED018461437BD465DF8047B7047B0B58AB0E7
S214401EE000AFF860B9601346FB80FB88BA6802FB17
S214401EF003F318460E4B984703463B61FB88BB826C
S214401F00BB683B62012387F824300023BB61002373
S214401F10FB61FB681D4607F110040FCC0FC594E823
S214401F20030085E8030000BF2837BD46B0BD00BFAC
S214401F303539400080B485B000AF78600023FB6040
S214401F407B68DA687B689B689A4209D97B681A691D
S214401F507B68DB68D21A7B689B681344FB6013E09F
S214401F607B689A687B68DB689A4207D17B681B7DF2
S214401F70022B03D17B681B69FB6005E07B689A688F
S214401F807B68DB68D31AFB60FB6818461437BD468F
S214401F905DF8047B704780B483B000AF78607B68A0
S214401FA01B7D012B0CBF01230023DBB218460C37E8
S214401FB0BD465DF8047B704780B483B000AF786060
S214401FC07B681B7D022B0CBF01230023DBB2184627
S214401FD00C37BD465DF8047B7047000080B584B082
S214401FE000AF786039600023FB7378681B4B9847D6
S214401FF00346002B1ED17B681A687B689B68581C7A
S214402000796888607968898801FB03F3D0187B6813
S2144020109B881A463968124B98477B6803221A7584
S2144020207B689A687B681B699A4205D37B68002266
S2144020309A6001E00223FB737B689A687B68DB68E2
S2144020409A4206D17B681B7D032B02D17B68022215
S2144020501A75FB7B18461037BD4680BDB91F400039
S214402060A53E400080B584B000AF7860396000235C
S214402070FB7378681B4B98470346002B1ED17B6842
S2144020801A687B68DB68581C7968C86079688988F4
S21440209001FB03F3D1187B689B881A463868124BBD
S2144020A098477B6803221A757B68DA687B681B69E9
S2144020B09A4205D37B680022DA6001E00123FB7375
S2144020C07B689A687B68DB689A4206D17B681B7D92
S2144020D0032B02D17B6801221A75FB7B184610370A
S2144020E0BD4680BD971F4000A53E400080B483B0EB
S2144020F000AF0346FB7197F90730002B0BDB09490D
S21440210097F907305B09FA7902F01F02012000FABE
S21440211002F241F8232000BF0C37BD465DF8047B31
S214402120704700BF00E100E080B483B000AF0346D4
S214402130FB7197F90730002B0CDB094997F90730FC
S2144021405B09FA7902F01F02012000FA02F26033BE
S21440215041F8232000BF0C37BD465DF8047B70472E
S21440216000E100E080B483B000AF03463960FB7105
S21440217097F90730002B0ADB0D4997F907303A6884
S214402180D2B25201D2B20B4483F800230AE0094986
S214402190FB7903F00F03043B3A68D2B25201D2B245
S2144021A00B441A7600BF0C37BD465DF8047B70477B
S2144021B000E100E000ED00E080B483B000AF78605E
S2144021C07B6800221A707B6800225A707B68012266
S2144021D09A707B680122DA707B6801221A717B68EC
S2144021E001225A717B6800229A717B680022DA715C
S2144021F07B6800221A727B684FF6FF725A817B68B2
S21440220000221A737B6800225A737B6800229A73F6
S2144022107B680022DA737B6800221A747B6802228D
S2144022205A747B6800229A747B680122DA747B6851
S2144022306FF060425A617B6801221A767B68002202
S2144022405A767B6801229A767B680022DA767B682B
S21440225000221A777B6800225A7700BF0C37BD46AB
S2144022605DF8047B704780B483B000AF7860396017
S2144022703B681F2B0ED87B681B68D3F8983001212B
S2144022803A6801FA02F21340002B01D0012312E013
S214402290002310E03B68203B3B607B681B68D3F81C
S2144022A09C3001213A6801FA02F21340002B01D01B
S2144022B0012300E0002318460C37BD465DF8047B3A
S2144022C0704780B483B000AF786039603B681F2B9E
S2144022D008D87B681B6801213A6801FA02F2C3F805
S2144022E098200AE03B68203B3B607B681B680121E6
S2144022F03A6801FA02F2C3F89C2000BF0C37BD468C
S2144023005DF8047B704780B485B000AFF8600B463C
S2144023107A60FB72FB7A83F00103DBB2002B07D0B6
S214402320FB681B687A6802F03F02C3F8A82006E004
S214402330FB681B687A6802F03F02C3F8B82000BF0B
S2144023401437BD465DF8047B7047000080B483B008
S21440235000AF78607B68044A1A6000BF0C37BD4601
S2144023605DF8047B704700BFFF07008880B483B0E9
S21440237000AF78607B684FF080421A607B686FF0F1
S214402380C0425A6000BF0C37BD465DF8047B7047BC
S21440239080B483B000AF786039607B681B689B6907
S2144023A003F00203002B02D06FF0090305E07B68C0
S2144023B01B683A68C3F8D020002318460C37BD4641
S2144023C05DF8047B704780B483B000AF78607B686C
S2144023D01B68D3F8F43018460C37BD465DF8047BCE
S2144023E0704780B483B000AF786039607B681B6804
S2144023F03A6802F01F02C3F8F82000BF0C37BD460B
S2144024005DF8047B704780B483B000AF78607B682B
S21440241000221A607B684FF408025A6000BF0C37EF
S214402420BD465DF8047B704780B483B000AF7860EB
S21440243039607B681B687A681268516D3A680A434F
S2144024405A6500BF0C37BD465DF8047B704780B4C4
S21440245083B000AF786039607B681B687A68126822
S214402460516D3A68D2430A405A6500BF0C37BD46A4
S2144024705DF8047B704780B483B000AF78607B68BB
S2144024801B681B6D18460C37BD465DF8047B7047CD
S21440249080B483B000AF786039607B681B683A6868
S2144024A01A6500BF0C37BD465DF8047B70470000D8
S2144024B080B586B000AF786007F1100318461E4B13
S2144024C098473B696FF31C033B617B696FF31C03C2
S2144024D07B613B69022262F35F733B617B69022248
S2144024E062F39F737B6107F11003002219467868F8
S2144024F0124B984707F10C031846114B9847FB6858
S2144025006FF31A43FB60FB686FF30A03FB60FB68DC
S214402510012262F3DD63FB60FB68022262F39F7375
S214402520FB6007F10C03002219467868054B984774
S21440253000BF1837BD4680BD6D2340009D0E40004D
S2144025404D2340003D0E400080B58AB000AF786015
S2144025503960354B00221A60344B00221A60202224
S21440256079683348334B9847142239683248314BA0
S21440257098472F4B002283F830202D4B002283F8BB
S21440258031202B4B002283F8322007F108031846EF
S2144025902A4B984702233B7602237B7607F10803B3
S2144025A01A4627492748284B9847284B1B78002B24
S2144025B00ED1274B98470520264B9847502105209B
S2144025C0254B98470520254B9847204B01221A70EB
S2144025D023491C48234B98474FF480311948224BD7
S2144025E09847184B1B684FF47F429A6523201F4B31
S2144025F09847012123201E4B984723201D4B984780
S21440260024201A4B984702212420194B984724200F
S214402610184B98470B48184B98470A48174B98470B
S21440262000BF2837BD4680BDAC11402094114020E5
S21440263060114020DD1E400078114020B921400046
S214402640000003404C114020550D4000D41040205F
S2144026500116400059174000D91640003117400077
S21440266011FE0862292440004F24400029214000E2
S21440267065214000ED204000B1244000D50D4000CB
S21440268080B58AB000AF78603960374B00221A6058
S214402690364B00221A60202279683548354B9847D9
S2144026A0142239683448334B9847314B002283F81C
S2144026B030202F4B002283F831202D4B002283F808
S2144026C0322007F1080318462C4B984702233B76E6
S2144026D002237B76002387F8243007F108031A4646
S2144026E027492848284B9847284B1B78002B0ED163
S2144026F0274B98470520274B984750210520264BC7
S21440270098470520254B9847204B01221A702449AC
S2144027101C48244B98474FF480311A48224B984720
S214402720184B1B684FF47F429A6525201F4B9847ED
S214402730012125201E4B984725201E4B98472620D2
S2144027401A4B984702212620194B98472620194BAA
S21440275098470C48184B98470A48184B984700BF6C
S2144027602837BD4680BD00BFA81140202811402014
S214402770D4114020DD1E4000EC114020B92140001D
S21440278000400340C0114020550D4000D41040206A
S2144027900116400059174000D91640003117400036
S2144027A011FE0862292440004F24400029214000A1
S2144027B065214000ED204000B1244000D50D40008A
S2144027C0B0B594B000AFF860B9607A60D7E9183415
S2144027D0C7E90A3400233B75FB7BC3F38013DAB2A8
S2144027E03B7D62F3C7133B75FB7BC3F34013DAB202
S2144027F03B7D62F386133B75FB7BC3F3C013DAB2B3
S2144028003B7D62F345133B75BB7AC3F34013DAB2A4
S2144028103B7D62F304133B75BB7AC3F30013DAB215
S2144028203B7D62F3C3033B753B7D23F07F03DBB206
S214402830002B04D0FB68C3F31C03BB6106E0FB68B7
S214402840C3F31C039B14C3F30B03BB61BB7AC3F3F4
S2144028500303DBB23B77002387F84F3010E097F84E
S2144028604F3097F84F2079680A44127807F15001A4
S2144028700B4403F8332C97F84F30013387F84F302A
S2144028803B7F97F84F209A42E9D307F1300407F18F
S21440289014050FCD0FC42B68236007F12803194693
S2144028A00348044B984700BF5037BD46B0BD00BFF5
S2144028B060114020DD1F4000B0B594B000AFF86016
S2144028C0B9607A60D7E91834C7E90A3400233B7503
S2144028D0FB7BC3F38013DAB23B7D62F3C7133B75D1
S2144028E0FB7BC3F34013DAB23B7D62F386133B7542
S2144028F0FB7BC3F3C013DAB23B7D62F345133B75F3
S214402900BB7AC3F34013DAB23B7D62F304133B75E4
S214402910BB7AC3F30013DAB23B7D62F3C3033B7565
S214402920FB68C3F31C03BB61BB7AC3F30303DBB290
S2144029303B77002387F84F3010E097F84F3097F8F2
S2144029404F2079680A44127807F150010B4403F887
S214402950332C97F84F30013387F84F303B7F97F84A
S2144029604F209A42E9D307F1300407F114050FCD02
S2144029700FC42B68236007F1280319460348044B0D
S214402980984700BF5037BD46B0BD00BFD411402069
S214402990DD1F400090B587B002AF5E485E4B98475B
S2144029A00346FB60FB6803F40023002B2ED04FF455
S2144029B000215848594B98470023BB6023E0BB682A
S2144029C019465448564B98470346002B18D0BB68C8
S2144029D07B60BB6819464F48524B98477B681A46FF
S2144029E051494C48514B9847514BD3E900344E49D6
S2144029F04D48CDE900344F4A496800684E4B9847E9
S214402A00BB680133BB60BB68002BD8D0FB6803F0C3
S214402A100103002B29D001213E48404B9847474BA5
S214402A201B681A4646493B48464B9847434B1B68EB
S214402A301A4600213748444B9847404B1B680133A1
S214402A403E4A13603D4B1B68102B02D13B4B002285
S214402A501A60374BD3E9003439493948CDE9003458
S214402A603A4A49680068344B9847FB6803F01003BD
S214402A70002B29D010212748284B9847344B1B68F9
S214402A801A4634492348344B9847314B1B681A46FC
S214402A90012120482C4B98472D4B1B6801332C4A6C
S214402AA013602B4B1B68102B02D1294B00221A6057
S214402AB01F4BD3E9003427492648CDE90034274A3E
S214402AC0496800681C4B9847FB6803F00073002B6E
S214402AD007D04FF000710F48104B98470D48204BD9
S214402AE09847FB6803F00053002B04D04FF000518A
S214402AF008480A4B9847FB6803F08043002B04D0F5
S214402B004FF080410348054B984700BF1437BD46F9
S214402B1090BD00BF4C1140207724400091244000D7
S214402B2067224000C3224000B0114020190F4000E9
S214402B30D8104020B8114020C1274000AC1140209A
S214402B4098114020850F400007234000A0114020E8
S214402B509411402050114020F10F40005811402061
S214402B60090E400080B588B000AF4048404B9847BB
S214402B7003467B617B6903F40073002B29D04FF436
S214402B8000713A483B4B98473B4B93F83030DBB2AA
S214402B90002B1AD139483A4B98470346002B0FD0A2
S214402BA03B4619463548374B98473B46012219461F
S214402BB02E48354B984702212C48344B984708E01E
S214402BC02D4B002283F8322003E02B4B012283F862
S214402BD031207B6903F48063002B04D04FF480617E
S214402BE02248244B98477B6903F40063002B04D0AB
S214402BF04FF400611D481F4B98477B6903F4805390
S214402C00002B11D04FF4805118481A4B984717485C
S214402C101F4B9847F861FB691B0A03F01F03BB6113
S214402C20B96912481B4B98477B6903F40053002B45
S214402C3004D04FF400510D480E4B98477B6903F47F
S214402C408043002B04D04FF480410848094B9847F6
S214402C507B6903F40043002B04D04FF40041034843
S214402C60044B984700BF2037BD4680BD4C114020DE
S214402C707724400091244000601140207811402085
S214402C80351F4000652040005D1040009123400005
S214402C90C7234000E323400090B587B002AF5E48AC
S214402CA05E4B98470346FB60FB6803F40023002B0B
S214402CB02ED04FF400215848594B98470023BB600C
S214402CC023E0BB6819465748574B98470346002BA6
S214402CD018D0BB687B60BB6819464F48534B984733
S214402CE07B681A4652494C48524B9847524BD3E958
S214402CF000344F494E48CDE90034504A4968006890
S214402D004F4B9847BB680133BB60BB68002BD8D09D
S214402D10FB6803F00103002B29D001213E48404BBD
S214402D209847484B1B681A4647493B48474B984785
S214402D30444B1B681A4600213748454B9847414B41
S214402D401B6801333F4A13603E4B1B68102B02D171
S214402D503C4B00221A60384BD3E900343A493A4893
S214402D60CDE900343B4A49680068354B9847FB68D4
S214402D7003F01003002B29D010212748284B9847F2
S214402D80354B1B681A4635492348354B9847324BD6
S214402D901B681A46012120482D4B98472E4B1B682E
S214402DA001332D4A13602C4B1B68102B02D12A4B43
S214402DB000221A60204BD3E9003428492748CDE941
S214402DC00034284A496800681D4B9847FB6803F062
S214402DD00073002B07D04FF000710F48104B9847F8
S214402DE00D48214B9847FB6803F00053002B04D056
S214402DF04FF0005108480A4B9847FB6803F0804361
S214402E00002B04D04FF080410348054B984700BF45
S214402E101437BD4690BD00BFC01140207724400007
S214402E20912440004C11402067224000C3224000BD
S214402E303C114020190F4000D8104020441140203B
S214402E40B9284000A8114020C4114020850F4000FA
S214402E5007234000CC114020281140202C11402050
S214402E60F10F400034114020090E400080B588B074
S214402E7000AF4048404B984703467B617B6903F46C
S214402E800073002B29D04FF400713A483B4B9847CB
S214402E903B4B93F83030DBB2002B1AD139483A4BD3
S214402EA098470346002B0FD03B4619463548374BCC
S214402EB098473B46012219462E48354B98470221F3
S214402EC02C48344B984708E02D4B002283F832209C
S214402ED003E02B4B012283F831207B6903F48063A7
S214402EE0002B04D04FF480612248244B98477B69DE
S214402EF003F40063002B04D04FF400611D481F4BC1
S214402F0098477B6903F48053002B11D04FF48051CF
S214402F1018481A4B984717481F4B9847F861FB6963
S214402F201B0A03F01F03BB61B96912481B4B984745
S214402F307B6903F40053002B04D04FF400510D4836
S214402F400E4B98477B6903F48043002B04D04FF424
S214402F5080410848094B98477B6903F40043002B9F
S214402F6004D04FF400410348044B984700BF203735
S214402F70BD4680BDC01140207724400091244000CB
S214402F80D4114020EC114020351F40006520400001
S214402F905D10400091234000C7234000E3234000DB
S214402FA080B58EB000AFF860B9607A60FB7007F10C
S214402FB020031846444B9847FB78002B08D03A6AC3
S214402FC0FB6823F06043134343F080433B6206E0D4
S214402FD03A6AFB6899043D4B0B4013433B6297F8B3
S214402FE04030002B03D03B6A43F000533B627B6883
S214402FF0DBB203F00F03DAB27B6A62F313437B6201
S21440300000237B630DE0BB68197807F128027B6BD1
S21440301013440A461A70BB680133BB607B6B0133AE
S2144030207B637A6B7B689A42EDD3294B012283F807
S214403030302007F1200319462648274B9847034679
S21440304087F83330224B002283F83020204B93F809
S2144030503130DBB21A461E4B93F83230DBB2002BCF
S2144030600CBF01230023DBB2134397F83320002A1A
S2144030700CBF01220022D2B21340002B1ED01548AE
S214403080164B98470346002B18D007F110031946F5
S2144030901048134B984707F1100301221946114870
S2144030A0114B984702210F48104B9847084B002277
S2144030B083F83120064B012283F8322097F83330CC
S2144030C018463837BD4680BD072440000000FC1F28
S2144030D06011402078114020DD1F4000351F400021
S2144030E0652040004C1140205D1040009123400078
S2144030F080B500AF0248034B98470346184680BD4C
S214403100D4114020351F400080B582B000AF7860B3
S21440311079680448044B9847034618460837BD4626
S21440312080BD00BFD41140206520400080B483B0ED
S21440313000AF03463960FB7197F90730002B0ADB76
S2144031400D4997F907303A68D2B25201D2B20B44D1
S21440315083F800230AE00949FB7903F00F03043B98
S2144031603A68D2B25201D2B20B441A7600BF0C373C
S214403170BD465DF8047B704700E100E000ED00E0EE
S21440318080B582B000AF78607B68013BB3F1807F4A
S21440319001D301230FE00A4A7B68013B53600721B5
S2144031A04FF0FF30074B9847054B00229A60044B80
S2144031B007221A60002318460837BD4680BD00BF68
S2144031C010E000E02D31400080B483B000AF78605E
S2144031D07B68072B25D801A252F823F0FD3140002A
S2144031E003324000093240000F32400013324000A4
S2144031F0173240001B3240001F3240004FF4FA4363
S21440320010E04FF400430DE04FF400430AE0084B53
S21440321008E0084B06E0084B04E0074B02E0064B8C
S21440322000E0002318460C37BD465DF8047B704727
S21440323000093D0000127A00001BB70080B500AFC1
S2144032400620054B9847024613469B0013449A00B7
S2144032501344184680BD00BFC931400080B500AF5A
S214403260024B98470346184680BD00BF3D3240009B
S21440327080B500AF024B984703465B08184680BDB2
S2144032803D32400080B582B000AF78607868034B2E
S214403290984700BF0837BD4680BD00BF4516400072
S2144032A080B58CB000AF786039604F4B9847034686
S2144032B07B623B681B68BB623B689B68FB623B6803
S2144032C01B68FB603B685B683B613B689B687B6157
S2144032D03B68DB68BB610023FB617B68434A9342E3
S2144032E008D10720424B984707F1240319467868CF
S2144032F0404B98477B68404A934208D108203C4B55
S214403300984707F12403194678683A4B98477B68F4
S2144033103A4A934208D12C20354B984707F124036C
S21440332019467868334B98477B68354A934208D1AC
S2144033302D202F4B984707F12403194678682D4BCC
S21440334098477B682F4A934208D12E20284B9847AF
S21440335007F1240319467868264B98477B682A4A23
S214403360934211D10D20224B98471F4B9847024657
S21440337007F10C0319467868244B98477868244B25
S21440338098477868234B98477B68234A934211D1E5
S2144033900E20174B9847144B9847024607F10C03EC
S2144033A019467868194B98477868194B9847786853
S2144033B0184B98477B68194A934211D10F200C4B03
S2144033C09847094B9847024607F10C031946786818
S2144033D00E4B984778680E4B984778680D4B984741
S2144033E000BF3037BD4680BD7132400000080E40F9
S2144033F08532400081174000000A0E40001A0E40F9
S214403400001C0E40001E0E400040024019194000AD
S2144034109D194000D11940000080024000C0024083
S21440342080B582B000AF78600B46FB707B68364A4A
S21440343093420AD100BFFB7819467868334B9847C9
S2144034400346002BF7D101235AE07B68304A93426B
S2144034500AD100BFFB78194678682C4B984703463C
S214403460002BF7D101234BE07B682A4A93420AD1CE
S21440347000BFFB7819467868244B98470346002BD4
S214403480F7D101233CE07B68234A93420AD100BF30
S214403490FB78194678681D4B98470346002BF7D1B2
S2144034A001232DE07B681D4A93420AD100BFFB787A
S2144034B0194678681A4B98470346002BF7D10123E4
S2144034C01EE07B68174A93420AD100BFFB78194634
S2144034D07868134B98470346002BF7D101230FE03B
S2144034E07B68114A93420AD100BFFB781946786838
S2144034F00B4B98470346002BF7D1012300E00023EF
S21440350018460837BD4680BD00080E40D917400013
S214403510000A0E40001A0E40001C0E4000400240BA
S2144035203D1A40000080024000C0024080B584B092
S21440353000AF786039600023FB607B68344A934272
S21440354007D100BF39687868324B98470346002B4E
S214403550F8D17B68304A934207D100BF3968786813
S2144035602C4B98470346002BF8D17B682B4A934256
S21440357007D100BF39687868264B98470346002B2A
S214403580F8D17B68264A934207D100BF39687868ED
S214403590204B98470346002BF8D17B68214A93423C
S2144035A00DD100BF07F10C03194678681E4B9847AB
S2144035B00346002BF6D1FB68DAB23B681A707B688C
S2144035C01A4A93420DD100BF07F10C03194678689A
S2144035D0154B98470346002BF6D1FB68DAB23B689A
S2144035E01A707B68124A93420DD100BF07F10C0354
S2144035F0194678680C4B98470346002BF6D1FB6873
S214403600DAB23B681A7000BF1037BD4680BD00BFB7
S21440361000080E4009184000000A0E40001A0E40EE
S214403620001C0E40004002406F1A400000800240DE
S21440363000C0024080B582B000AF786039600F4A63
S2144036407B6813600E4B0F4A1A600F4B0F4A1A6086
S214403650396878680E4B98470E4B1B689B6800216C
S21440366018460D4B98470B4B1B685B680021184665
S214403670094B984700BF0837BD4680BD24114020FF
S21440368020114020213440001C1140202D354000A0
S214403690A132400010004020B140400090B400AF3E
S2144036A0084B1B680133074A1360074BD3E90034C5
S2144036B0013344F10004044AC2E9003400BFBD4669
S2144036C090BC7047E0104020D810402080B485B0B1
S2144036D000AF7860084B1B68FB6000BF064B1A685B
S2144036E0FB68D21A7B689A42F8D300BF1437BD46AF
S2144036F05DF8047B704700BFE010402090B585B071
S21440370000AF084B3C460FCB84E80F000E20064B1C
S21440371098473B4619460548054B984700BF14371F
S214403720BD4690BD4868400085324000008002405B
S2144037303536400090B58BB000AF002387F8273071
S2144037402EE03B4618461B4B984797F82710D7E97C
S21440375000341A4623461848184CA04797F8273096
S214403760013387F82730FB6819461548134B9847AE
S2144037700023BB840CE0BB8C07F12802134413F8EB
S214403780173C19460F480D4B9847BB8C0133BB84FA
S2144037903B7C9BB2BA8C9A42EDD30B48074B98477A
S2144037A00A4B98470346002BCBD100BF2C37BD466B
S2144037B090BD00BF09314000586840000D394000B8
S2144037C0646840006C68400074684000F130400017
S2144037D090B585B002AF294B9847294B9847294B5F
S2144037E0984740214020284B984740214020274B6F
S2144037F09847274B98470246264BA3FB02239B0934
S2144038001846254B98472548254B9847254B1B7807
S21440381019462548224B9847224B1B780133DAB28B
S214403820204B1A703220214B9847214B9847002353
S214403830FB710AE0F87900230093012304221D4916
S2144038401D4CA047FB790133FB71FB793F2BF1D927
S21440385000233B600DE0174A3B6813441B78013356
S214403860D9B2144A3B6813440A461A703B6801337F
S2144038703B603B68032BEED9C8E700BFD504400049
S21440388009094000FD364000492540008126400099
S2144038905D324000D34D6210813140007868400070
S2144038A00D394000E4104020C0684000CD3640004E
S2144038B03537400008004020A12F400070B50F4E1D
S2144038C00F4D761BB61018BF002405D0013455F8AE
S2144038D0043B9847A642F9D10A4E0B4D761B03F09F
S2144038E0C7F8B61018BF002406D0013455F8043B7C
S2144038F09847A642F9D170BD70BD00BF7C6A4000B3
S2144039007C6A4000846A40007C6A40000FB400B580
S214403910074983B004AB086853F8042B81680193C9
S21440392000F0D6FC03B05DF804EB04B0704700BF6F
S21440393010004020024B0146186800F003B800BF54
S214403940100040202DE9F04F01F10B06162E83B0F3
S214403950054640F29E8036F0070600F1BD80B14233
S21440396000F2BA8000F086FBB6F5FC7FC0F093828A
S214403970730A00F0B880042B00F27981B30903F192
S214403980390003F1380EC300BF4F3B44A3F1080192
S2144039905C68A14206D10CE0002A80F2AA80E46866
S2144039A0A14206D0636823F003039A1B0F2AF3DD77
S2144039B070463C69DFF8E4E2744500F0AB8163682A
S2144039C023F003039A1B0F2A00F39081002AC7F8BE
S2144039D014E0C7F810E080F29D80B3F5007F80F0D9
S2144039E06181DB0803F1010C99107A6857F83C8036
S2144039F0C4F8088001238B4007EBCC0113430839F9
S214403A00E1607B6047F83C40C8F80C4082100124D7
S214403A1094409C4200F28B801C4206D120F003006A
S214403A2064001C4200F10400FAD007EBC009CC4603
S214403A308046DCF80C309C4507D16DE1002A80F2C8
S214403A407B81DB689C4500F06781596821F0030163
S214403A508A1B0F2AF2DDD3F80CC0D3F808800093F7
S214403A609C19284646F0010642F001055E60C8F8FB
S214403A700CC0CCF808807C613C61C4F80CE0C4F80B
S214403A8008E065605A5000F0FBFA009B03F108041A
S214403A901EE0102920D800F0EDFA10261823022048
S214403AA0794F3B44A3F108025C68944200F03D81A4
S214403AB06368E168A66823F00303234428465A68EF
S214403AC0F16042F001028E605A6000F0D9FA083484
S214403AD0204603B0BDE8F08F00240C2320462B6020
S214403AE003B0BDE8F08F40204FF400734FF03F0E18
S214403AF04AE72344E1685A68A66842F00102F1604A
S214403B0028468E605A6000F0BBFA0834204603B060
S214403B10BDE8F08F234428465A6842F001025A60B6
S214403B2000F0AEFA0834204603B0BDE8F08FBC681B
S214403B30636823F00308B04504D3A8EB06030F2BB5
S214403B4000F38580DFF85891504BD9F800201B6869
S214403B500132334404EB080A00F0558103F58053E4
S214403B600F3323F47F6B2BF00F0B5946284600F09B
S214403B708DFA411C024600F0FC80824500F2F78038
S214403B80434B19685944196000F04D81D9F800003C
S214403B9001301BBFA2EB0A0A5144C9F80020196045
S214403BA012F0070100F01581C1F10800C1F58051FF
S214403BB00244083102EB0B09C9F30B09A1EB0909D2
S214403BC0494628460193009200F060FA431C9DE85F
S214403BD00C0000F04381801A484440F00100196808
S214403BE0BA604944BC425060196017D0B8F10F0F14
S214403BF040F2FB806068A8F10C0222F0070204EB5A
S214403C00020E00F001004FF0050C10430F2A6060D2
S214403C10CEF804C0CEF808C000F217811D4BBC6831
S214403C201A68914288BF19601B4B1A6891426268B5
S214403C3088BF196022F003029642A2EB060301D821
S214403C400F2B04DC284600F01BFA002440E7A2199C
S214403C5043F0010346F0010666602846BA605360AA
S214403C6000F00EFA0834204603B0BDE8F08F142B5F
S214403C7071D9542B00F2A380330B03F16F0003F18C
S214403C806E0EC30080E600BF40044020181140205E
S214403C90E8104020101140201411402048044020D5
S214403CA0480840205A0A042A5BD9142A00F2AE80FB
S214403CB002F15C01C9005B3207EB010C7958ACF1AC
S214403CC0080C8C4500F088804A6822F00302934234
S214403CD073D289688C45F7D1DCF80C207B68E260AB
S214403CE0C4F808C09460CCF80C408FE6A11946F0A2
S214403CF0010C42F00106C4F804C0284679613961D7
S214403D00C1F80CE0C1F808E04E60E25000F0B8F9A7
S214403D100834DDE67B6879E608F1010818F0030F01
S214403D200CF1080C7FF485AE2DE0DC68A34208BF9A
S214403D3002303FF43EAEBBE619441C464A68DB6898
S214403D4054F8086F42F001024A602846F3609E60CD
S214403D5000F096F9BCE603F15C0003F15B0EC3008D
S214403D6012E69A0902F13901C9003832A4E7BC428A
S214403D7054D0BC68626822F003025DE759F80839FF
S214403D80994540F0868010F0030F00F1FF30F5D1E2
S214403D907B6823EA04037B6064009C423FF6C7AE20
S214403DA0002C3FF4C4AE1C4240467FF43EAE640056
S214403DB01C4200F10400FAD037E68C468CE7B3F597
S214403DC0AA7F15D8F30B03F1780003F1770EC300F2
S214403DD0DAE54FF48051EDE67B689210012101FA56
S214403DE002F213437B60624679E70123536029E77A
S214403DF040F25452934222D8B30C03F17D0003F1B3
S214403E007C0EC300C0E503F1100BAEE6542A29D859
S214403E101A0B02F16F01C9006E324DE7204B19684C
S214403E2059441960B2E6CAF30B0000287FF4AEAEE0
S214403E3008EB0B03BA6843F001035360EEE67F20BD
S214403E404FF47E734FF07E0E9EE504F1080128463F
S214403E50009301F059FB009B1968DFE601204FF004
S214403E600009BCE6B2F5AA7F05D8DA0B02F1780164
S214403E70C900773220E740F254518A4205D89A0C5E
S214403E8002F17D01C9007C3216E74FF47E717E2236
S214403E9012E77B6880E7F00806F1080300E600BFFB
S214403EA0E8104020844641EA000313F003036DD136
S214403EB0403A41D351F8043B40F8043B51F8043BA8
S214403EC040F8043B51F8043B40F8043B51F8043BAF
S214403ED040F8043B51F8043B40F8043B51F8043B9F
S214403EE040F8043B51F8043B40F8043B51F8043B8F
S214403EF040F8043B51F8043B40F8043B51F8043B7F
S214403F0040F8043B51F8043B40F8043B51F8043B6E
S214403F1040F8043B51F8043B40F8043B51F8043B5E
S214403F2040F8043B51F8043B40F8043B51F8043B4E
S214403F3040F8043B403ABDD2303211D351F8043BEE
S214403F4040F8043B51F8043B40F8043B51F8043B2E
S214403F5040F8043B51F8043B40F8043B103AEDD29D
S214403F600C3205D351F8043B40F8043B043AF9D2EE
S214403F70043208D0D2071CBF11F8013B00F8013BC1
S214403F8001D30B8803806046704700BF082A13D3CE
S214403F908B078DD010F003038AD0C3F10403D21AE6
S214403FA0DB071CBF11F8013B00F8013B80D331F81A
S214403FB0023B20F8023B7BE7043AD9D3013A11F89A
S214403FC0013B00F8013BF9D20B7803704B78437005
S214403FD08B7883706046704770B4860746D0541E10
S214403FE0002A41D0CAB2034602E014F1FF343BD364
S214403FF003F8012B9D07F8D1032C2ED9CDB245EA04
S21440400005250F2C45EA054519D903F11002264629
S214404010103E0F2E42F8105C42F80C5C42F8085CEA
S21440402042F8045C02F11002F2D8A4F1100222F029
S2144040300F0204F00F041032032C13440DD91E4611
S2144040402246043A032A46F8045BFAD8221F22F096
S21440405003020432134404F003042CB1C9B21C44D6
S21440406003F8011B9C42FBD170BC704714460346C4
S214404070C2E700BF014801F0E1BC00BF1812402073
S214404080014801F0DDBC00BF1812402038B5074C8F
S2144040900023054608462360FDF7C0FE431C00D0BB
S2144040A038BD2368002BFBD02B6038BD2C12402037
S2144040B000290CBF022200224FF4806300F000B8B3
S2144040C02DE9F043614C256883B004460F46904680
S2144040D01E4615B1AB6B002B64D0B8F1020F06D06C
S2144040E0B8F1010F00F29F80002EC0F29C80636EF4
S2144040F0D80734D52146284601F088F8216B41B1CF
S21440410004F14003994202D0284601F0FDF900230D
S2144041102363B4F90C300022A26162601A063AD4D6
S21440412023F44A6323F00303B8F1020FA3811DD0A2
S21440413001AB6A462146284601F084FCA389184311
S214404140A081002E32D1009E3046FFF7F3FB074693
S21440415000286BD0A38943F08003A38128E0A3897D
S2144041609905C7D4A06D01F069FCC3E70025616ED0
S214404170002604F1430243F002030120A660CE0766
S214404180A38122602261606101D498053ED528460D
S21440419003B0BDE8F0832169284601F0B5F9B4F9CB
S2144041A00C30BDE7284601F089F896E7002FCBD0C3
S2144041B0AB6B002B33D0009BB4F90C2027609E429B
S2144041C01CBF42F40062A281B8F1010F04BF42F066
S2144041D00102A28192B212F00803276166610ED0F6
S2144041E0D1071AD5656E7642002315F00105A66103
S2144041F0A36009D00025284603B0BDE8F083A3603D
S214404200656E15F00105F5D19305C0D4A06D01F09B
S21440421017FC284603B0BDE8F083A660F0E72846C2
S21440422001F04CF8C7E74FF0FF35B0E7DDF80090F7
S214404230B14504D04846FFF77DFB074620B9B4F9A0
S2144042400C304FF0FF3592E74E4683E71000402093
S2144042502DE9F84F4B6E9C0493462FD59368126811
S21440426053B30E46074602F1080919E920045FEAEF
S2144042709A0817D0043D002401E0A04510D03246ED
S21440428055F8041F384601F0BBF8431C04F10104FE
S214404290F3D10023CBF80830CBF80430BDE8F88FD4
S2144042A0DBF808302AF0030AA3EB0A03CBF8083001
S2144042B009F10809002BD8D10020EAE701F00AFAF4
S2144042C00023CBF80830CBF80430BDE8F88F00BFA9
S2144042D02DE9F04FADB01D468B46904607930690AD
S2144042E018B1836B002B00F0F380DBF86430BBF929
S2144042F00C00DF0781B202D48E0540F1FC808C04AE
S2144043000AD4DBF8643040F4005123F40053ABF891
S2144043100C10CBF8643089B2080740F1B380DBF864
S2144043201030002B00F0AE8001F01A030A2B00F08C
S214404330B58000230DF170090B93119310930393EE
S214404340CDF83C90CA46CDF810B098F800304446B8
S214404350FBB1252B02D11CE0252B03D014F8013FDE
S214404360002BF9D1A4EB08059DB1109B119ACAF811
S214404370008001332A44072BCAF804501192109348
S2144043807ADD002A40F0B084039B10922B44CA4644
S21440439003932378002B00F0E08300204FF00003C7
S2144043A08DF8373004F10108627805460646034624
S2144043B04FF0FF3408F10108A2F12001582900F21D
S2144043C0DE82DFE811F02102DC02DC022902DC0298
S2144043D0DC02DC02DC02DC02DC0289029502DC0242
S2144043E0A200BD02DC029F01A401A401A401A40115
S2144043F0A401A401A401A401A401DC02DC02DC02A5
S214404400DC02DC02DC02DC02DC02DC02DC02B201A2
S214404410DC02DC02DC02DC02DC02DC02DC02DC0267
S214404420DC02DC029701DC02DC02DC02DC02DC029D
S2144044309B01DC02DC025302DC02DC02DC02DC0212
S214404440DC02DC02DC02DC02DC02DC025A021B027A
S214404450DC02DC02DC026E021B02DC02DC027302BF
S214404460DC02F50182010902D702DC029A02DC0274
S214404470A700DC02DC022E020AF1080A039B2B444A
S214404480039386E75946069800F0ACFD18BBBBF888
S2144044900C1001F01A030A2B7FF44BAFBBF90E3019
S2144044A0002BFFF646AFDBF86430DB0705D48F05FC
S2144044B003D4DBF8580001F0C3FA2B46424659466F
S2144044C0069800F04DFD039003982DB0BDE8F08FA0
S2144044D000F0F4FE09E7DBF86430D90704D4BBF8F3
S2144044E00C309A0540F1AA844FF0FF3303930398AB
S2144044F02DB0BDE8F08FDBF8580001F09FFABBF90D
S2144045000C0081B2FBE67642079243F0040398F82B
S21440451000204FE708969E0600F150840799DD0676
S2144045200A4600F1EF83580640F1EC830E880431CA
S2144045300027012207914FF000018DF83710002523
S214404540611C00F0168123F08001029156EA0701B3
S21440455040F01481002C40F05C83002A40F0B78382
S21440456013F00103059300F057840DF1B00B302390
S2144045700BF8413D059BA342B8BF234601930DB1BE
S21440458001330193029B13F00203099302D0019B6F
S21440459002330193029B13F084030A9340F0178280
S2144045A0089B019A9D1A002D40F31182102D40F36E
S2144045B09084109B119AC44ED6461027A2461946A0
S2144045C0069C07E001F1020C0EF1080E0146103D74
S2144045D0102D11DD481C1032072811928EE8C000BD
S2144045E01090EFDD002A40F0E481103D102D11467A
S2144045F04FF0010CCE46EDDC54466146F2462A4466
S21440460007291192CAF80060CAF80450109100F3C6
S214404610EC829DF837500AF1080A481C002D40F0FD
S214404620DE81099B002B00F0F88102320EA902239E
S2144046300728119210908AE80A0040F3EA81002A7F
S21440464040F08C830A9B802B4FF001001146CA46EF
S21440465040F0E781089B019D5E1B002E40F3E18100
S214404660102E9A4D40F35084D4461027A246069CFE
S21440467007E001F1020E0CF1080C0146103E102E28
S21440468011DD481C1032072811928CE8A0001090CB
S214404690EFDD002A40F09D82103E102E4FF0010EB6
S2144046A01146CC46EDDC5446E2463244BEF1070F96
S2144046B011928AE86000CDF840E000F369830AF181
S2144046C0080A0EF101007146ABE1089613F020028D
S2144046D040F08C8313F0100140F01A8313F0400230
S2144046E000F0168307980A4601460431068807916B
S2144046F0002720E7089643F01003E7E7089643F0C4
S214404700100308E743F0800398F8002052E6A2F131
S2144047103001002618F8012B06EB860601EB46060C
S214404720A2F130010929F5D946E60896002840F05E
S214404730088443F010039E0600F14C83DD0600F12A
S214404740F382580640F1F082079DB5F900602A468C
S214404750F7170432304639460792002871F10002B6
S214404760C0F25D83611C9DF837504FF001027FF424
S214404770EAAE56EA070100F04D820293012A00F0A5
S2144047808C82022A40F05C820B98CB46330906F0B6
S2144047900F0143EA07733A091E461746435C0BF877
S2144047A0013D56EA0703F1D1A9EB0B030593E1E679
S2144047B0002840F0C083990600F16783DA0600F1CE
S2144047C0F1805B0640F1EE80079A13680432079248
S2144047D0BDF80C201A80B8E507983D4A08960B921B
S2144047E006687822302104308DF8392043F00203E1
S2144047F0079000278DF8381002229CE6089600287D
S21440480099D08DF8375096E798F80020002D7FF421
S214404810D1AD01202025CDE543F0010398F80020D6
S214404820C8E50896002840F0938329490B919F06D7
S21440483000F1E8820798DE06014600F170825D06C8
S21440484040F16D820431068807910027D80740F171
S214404850228256EA070100F01E8230218DF8392068
S21440486043F002038DF83810022264E608960028CA
S21440487040F06B8317490B91D9E7079908960A6869
S2144048808DF848204FF000000A468DF83700043275
S21440489001200190079205900DF1480B02930024E9
S2144048A070E643F0400398F8002083E598F800202F
S2144048B06C2A03BF98F8012043F0200308F1010852
S2144048C043F0100376E500BF3C6940004C69400069
S2144048D0206940000C69400007990E680A46002E81
S2144048E002F10402FFF60FAE079298F8002061E549
S2144048F098F8002001202B255CE507990896D1F80A
S21440490000B04FF000028DF837200E1DBBF1000FAF
S21440491000F0E582671C00F0C4822246002158461B
S214404920019301F01DF9019B002800F0E582A0EB01
S2144049300B020592079602939DF83750002419E61D
S21440494098F800202A2A08F1010700F0E982A2F12F
S21440495030010929B8464FF000043FF62DAD18F84F
S214404960012B04EB840401EB4404A2F13001092935
S214404970F5D921E543F0200398F800201AE508967B
S214404980002840F0DB82002A00F0E78001218DF805
S21440499048204FF0000201918DF8372005910DF127
S2144049A0480B7BE7079A136804320792039A1A600B
S2144049B0CBE40FAA04992046FFF74AFC002840F0B3
S2144049C039811099119A01F1010CCE46FFE51099F4
S2144049D0119A481C9DF83750002D3FF422AE013204
S2144049E00DF137050121072811921090CAF80050A2
S2144049F0CAF8041040F30881002A40F0BC81099BA5
S214404A00002B3FF41FAE0EAB022208461C931D92AD
S214404A10CA4601460AF1080A01300A9B802B3FF439
S214404A2019AE059BE41A002C2EDD102CB34D1EDD6E
S214404A30D6461026069FDDF810A006E0881C0EF12C
S214404A40080E1946103C102C10DD4B1C1032072B5C
S214404A5011928EE860001093F0DD002A65D1103C7C
S214404A60102C4FF001001146CE46EEDCF2462244B2
S214404A7007281192CAF80050CAF80440109000F374
S214404A8085800AF1080A01300599CAF800B00A4440
S214404A9007281192CAF80410109040F38280002A2A
S214404AA040F01881029B1092580735D5089B019913
S214404AB05C1A002C40F3E780CA46102C40F318825C
S214404AC010998F4E069FDDF810B0102506E0881C22
S214404AD00AF1080A1946103C102C11DD4B1C103206
S214404AE0072B1192CAF80060CAF804501093EEDD06
S214404AF042BB103C102C4FF001001146CA46EDDC7C
S214404B00224407281192CAF80060CAF80440109060
S214404B1051DD002A40F09B81039B089A01998A4206
S214404B20ACBF9B185B1803934EE00FAA514638461D
S214404B30FFF78EFB002840F03F811099119A481CE1
S214404B40CE467FE70FAA59463846FFF781FB60B945
S214404B501099119A481CCA46BDE7119BDDF810B063
S214404B60002B40F0D48100231093DBF8643013F020
S214404B70010FBBF80C3002D19A0540F1DE805B068F
S214404B803FF5B2AC03982DB0BDE8F08F002A40F058
S214404B900681059A1D9201231192CDF870B01093AC
S214404BA0CA460AF1080A029B590704D5089B019990
S214404BB05C1A002C81DC039B089901988142ACBFAB
S214404BC05B181B18039372BB00231093CA46FFF76B
S214404BD0BCBB0FAA04992046FFF73AFB50BB10997E
S214404BE0119A01F1010ECC4648E5002A40F040817A
S214404BF09DF83710002900F01B8101220DF1370186
S214404C0010461D921C91CA4601460AF1080A013018
S214404C1007E5029B012A00F09880022A0DD10293F4
S214404C2000260027B0E50FAA04990698FFF710FB68
S214404C300028C9D0DDF810B097E702930026002779
S214404C40494600E05946F20842EA4772F80806F03C
S214404C50070307461646303356EA070201F8013C7A
S214404C6001F1FF3BEED1029AD6077FF59DAD302B82
S214404C703FF49AAD023930230BF8013CA9EB01030F
S214404C8005938B4676E4039B089A8A42ACBF9B18F2
S214404C905B18039398E702224DE4002F08BF0A2EC4
S214404CA052D3CB46304639460A22002301F044FC14
S214404CB030320BF8012D3046394600230A2201F0E7
S214404CC03BFC06460F4656EA0703EBD16CE50594D7
S214404CD0CB464FE40FAA04990698FFF7B9FA002886
S214404CE0A8D1119ACA465EE70FAA04990698FFF71C
S214404CF0AFFA00289ED1CA46FFF7C0BB4C694000B9
S214404D003C6940000431166807910122002712E4EE
S214404D100798014604310668079100270BE40E68A1
S214404D2004310791002791E507990E680A46F71760
S214404D3004320792304639460FE5DBF8580000F05B
S214404D407FFEBBF80C301AE7029B02930DF1B00BC6
S214404D50303601230BF8416D05930BE40FAA0499F6
S214404D600698FFF775FA00287FF464AF1099119AF9
S214404D70481CCA4651E60FAA04990698FFF768FAF7
S214404D8000287FF457AF1099119A481CCA4648E449
S214404D90002A40F0918001201146CA4641E60FAAFB
S214404DA004990698FFF754FA00287FF443AF10980A
S214404DB0119A0130CA4667E6D346D6E6079E0736BE
S214404DC026F0070202F10801D2E9006707910122A6
S214404DD0FFF7B1BB079E073626F00706D6E9000167
S214404DE006F10802079206460F46B6E4079E0736C7
S214404DF026F0070202F10801D2E900670791002277
S214404E00FFF799BB079E073626F0070101F1080019
S214404E100790D1E9006719E5CB46FFF7ABBB2D25D8
S214404E20764267EB47078DF837500122FFF788BB7D
S214404E30099BB3B911460120CA46F2E5DBF8580093
S214404E4000F0FEFD4FF0FF330393FFF750BB0FAA71
S214404E5004990698FFF7FCF900287FF4EBAE119A08
S214404E60A9E60EAB02221C931D920120CA46D0E54D
S214404E700FAA04990698FFF7EBF900287FF4DAAEFC
S214404E801099119A481CCA46A4E5079A03991368D4
S214404E90CD170846043229460792C3E90001FFF7BA
S214404EA054BA58460796029301F00AF90024059032
S214404EB09DF83750FFF75EBB0FAA04990698FFF798
S214404EC0C7F900287FF4B6AE1099119A481CCA4616
S214404ED0A7E51099119A204E0131FFF790BB062C9A
S214404EE028BF0624059407960194DFF870B0D5E4F1
S214404EF01098194E013003E605949DF837500796F2
S214404F0002930446FFF736BB8646FFF7CEBB0698AD
S214404F100FAA5946FFF79CF900283FF424AE24E632
S214404F20079998F801200C68043144EAE474B846BE
S214404F300791FFF73FBA8DF837503CE48DF837506D
S214404F4021E58DF83750FFF7F4BB8DF8375091E4E4
S214404F508DF8375069E400BF3C6940003469400032
S214404F602DE9F0410C46ADF58D6D8989666EE58973
S214404F70199621F002010646E069ADF80C10174676
S214404F804FF48061626AADF80E5098461AAD002321
S214404F90079016A8099206930095049502910591EC
S214404FA000F048FD43463A4669463046FFF790F9DA
S214404FB0051E07DB3046694600F028F9002818BF72
S214404FC04FF0FF35BDF80C305B0603D5A38943F0A0
S214404FD04003A381169800F02FFD28460DF58D6DF1
S214404FE0BDE8F08138B5304B1B6805460C4613B11A
S214404FF09A6B002A38D0B4F90C2093B218070CD517
S2144050002069A8B113F001021ED0636900225B42FA
S214405010A361A260F0B1002038BDD9063CD5580740
S21440502026D4206942F00803A3819BB20028E9D128
S21440503003F42072B2F5007FE4D02846214600F003
S2144050402FFDA3892069DDE7990758BF6269A260F2
S2144050500028E0D1B4F90C301A06DDD543F0400301
S214405060A3814FF0FF3038BD184600F027F9C2E75D
S214405070216B51B104F14003994204D0284600F018
S21440508043FAB4F90C2000232363002320696360AD
S21440509022F024022060C5E742F0400209232B603C
S2144050A04FF0FF30A28138BD10004020024B13B1B4
S2144050B0024800F005B87047000000002D5340003D
S2144050C0002301461A46184601F00EB9B1F90C30D5
S2144050D09AB22DE9F0410D46110780463AD46A68E7
S2144050E043F40063002AAB816FDDAC6A002C49D0E4
S2144050F000229BB2D8F80060C8F8002013F4805213
S21440510067D02A6D5F0705D569682B6B521A0BB1BD
S214405110EB6BD21A0023E9694046A047441C3CD0BA
S214405120B5F90C302A692A6023F400630022AB816B
S214405130DB046A6047D4296BC8F8006011B305F1F8
S2144051404003994202D0404600F0DEF90020286332
S214405150BDE8F0812E69AEB12C682E6091070CBF79
S2144051606B690023A41BAB600AE0234632466F6A95
S214405170E9694046B8470028A4EB0004064404DD2D
S214405180002CF2DC0020BDE8F081AB8943F0400300
S214405190AB814FF0FF30BDE8F081D8F800401D2CC1
S2144051A0F3D8194BE340DB4313F00103EDD1B5F9D7
S2144051B00C206B6022F400632969AB81DA04296015
S2144051C0B9D5002CB7D12865B5E7EA6B002A8CDC48
S2144051D0D8E70123E9694046A047431C024602D06F
S2144051E0AB89AC6A8EE7D8F80030002BF8D01D2B80
S2144051F001D0162B02D1C8F80060C3E7AB8943F054
S2144052004003AB81BDE8F0810100402038B50D4633
S214405210044608B1836BBBB1B5F90C0088B16B6E20
S214405220DB0701D4810517D520462946FFF74EFFF8
S2144052306B6EDA07044602D4AB899B0507D5204639
S21440524038BD0446204638BD00F038F8E4E7A86D7F
S21440525000F0F6FB204638BDA86D00F0EFFBE3E714
S214405260014900F0AFBB00BFD163400010B500233A
S21440527004468181C2810360436083604366036164
S21440528043618361194608225C30FEF7A5FE074855
S2144052900749084A084B2062E4616162A262E36201
S2144052A004F15800BDE8104000F0C4BB1560400053
S2144052B039604000756040009560400010B5044677
S2144052C0124800F0BBFBA26BD2B904F53B73104802
S2144052D0C4F8E8320321C4F8E022E063C4F8E412DC
S2144052E060680421FFF7C2FF01220921A068FFF78A
S2144052F0BDFF02221221E068FFF7B8FF0123A36337
S2144053000248BDE8104000F09BBB00BF141240208E
S21440531061524000014800F091BB00BF2812402077
S214405320014800F08DBB00BF2812402038B50A4C1B
S2144053300A4D641BA4100AD004F18043013B05EBE0
S2144053408305013C55F804399847002CF9D1BDE84F
S214405350384001F097BB00BF946A4000906A400016
S2144053602DE9F04782B080468946144600F054FB4B
S214405370012836D04A4604F15C0301A9404600F0B5
S21440538065FF421C064625D0A8B39DF804E00025DC
S2144053900DF1040A09E023685A1C226083F800E0F5
S2144053A00135B54227D215F80AE0A368013B002B29
S2144053B0A360F0DAA769BB4271462246404602DB4C
S2144053C0BEF10A0FE7D100F0E9FE431CE8D102B077
S2144053D0BDE8F087A38943F04003A38102B0BDE84F
S2144053E0F08709F1FF33FE2BC4D85FFA89FE0646E4
S2144053F08DF804E0CBE7484602B0BDE8F08700BF32
S21440540030B5536E13F0010FB2F90C30144683B02A
S21440541005469AB201D190051CD5900406D4626E1A
S21440542043F4005342F40052A38162662846224663
S214405430FFF796FF636EDA07054602D4A3899B05FD
S21440544002D5284603B030BDA06D00F0F9FA2846D4
S21440545003B030BDA06D019100F0F0FAB4F90C3005
S21440546001999AB2D9E700BFF8B5244F0C460646D4
S214405470FEF700FEBB685D68C4F57E610F3125F01F
S2144054800305294421F47F6121F00F01A1F58054E2
S214405490B4F5805F07DB00213046FEF7F7FDBB68BA
S2144054A02B44984204D03046FEF7EAFD0020F8BD73
S2144054B061423046FEF7EAFD01300DD0104BBA6827
S2144054C019682D1B45F001053046091B55601960CB
S2144054D0FEF7D6FD0120F8BD00213046FEF7D6FD8A
S2144054E0BA68831A0F2BDEDD064C0549246843F064
S2144054F00103001B53600860D5E700BF400440200E
S214405500E810402048084020002944D02DE9F041CA
S2144055100D468046FEF7AEFD55F8047C694927F0F7
S2144055200103A5F10804E2188E685068B24220F0E4
S21440553003005ED0FE0750600BD455F8087CE41B91
S21440554001F1080EA56875453B446DD0E768EF60ED
S214405550BD6015186D68ED073ED543F001026260E8
S214405560E350B3F5007F17D2DB08581C9A104D68FD
S21440557051F83070A7600123934001EBC0022B43E3
S214405580083AE2604B6041F83040FC604046BDE877
S214405590F041FEF775BD70475A0A042A52D89A0958
S2144055A002F13907FF0002F13805C819CA59083810
S2144055B090424FD0516821F003018B4232D292681C
S2144055C09042F7D1C368A060E3609C60C4604046E8
S2144055D0BDE8F041FEF754BD95683B4FBD420344DD
S2144055E040D0D068E86043F0010285606260E350D6
S2144055F0B7E7FF07034407D455F8082CA41A13440A
S214405600A068E268C2609060304A126843F00100C9
S214405610934260608C60B9D32D4B40461968FFF7C3
S21440562023FFB3E71046CDE711184968C90744D4AD
S2144056309168D268CA60034443F00100916060609C
S214405640E350A3E7142A16D802F15C07FF0002F1E4
S2144056505B05AAE7AA1001234D6893402B434B6095
S2144056600346B0E743F001024C610C61E560A5607B
S2144056706260E3508AE7542A06D81A0B02F16F0795
S214405680FF0002F16E0590E7B2F5AA7F06D8DA0B66
S21440569002F17807FF0002F1770586E740F25450A2
S2144056A0824206D89A0C02F17D07FF0002F17C0583
S2144056B07BE74FF47E777E2577E743F00101616014
S2144056C0136063E740044020480440204C084020D4
S2144056D0181140209368002B73D02DE9F04F8B892A
S2144056E083B00C4619070090164626D5226922B389
S2144056F013F0020035682CD04FF00009B04FC84672
S214405700B246B84543464A4628BF3B460098B8F19D
S214405710000F50D0E169666AB047002858DDDAF8D5
S21440572008301B1A8144A8EB0008CAF80830002B42
S214405730E7D1002003B0BDE8F08F21460098FFF780
S21440574051FC002840F03381A389356813F00200ED
S214405750D2D113F0010945D14F46019637B39A0589
S214405760D4F8088040F183804745C346C0F0AB80FC
S21440577013F4906F40F0AC802068BA465A464946CB
S21440578000F03EFAA2682368A2EB08025B44A260DF
S2144057902360019A9368A3EB0A03D144A7EB0A0758
S2144057A09360002BC5D0A389002FD8D1D5F80090A0
S2144057B06F680835D2E7D5F80090D5F804800835EC
S2144057C09FE70020704721460098FFF71FFD70B303
S2144057D0B4F90C3043F040034FF0FF30A38103B0E0
S2144057E0BDE8F08F814633464E46A8469A464D461B
S2144057F04EB380B3206823696269B145CB4628BF63
S214405800B34698425F4604D9A36813449B4500F3C9
S214405810A68093454BDB1346676AE16900982A46A3
S214405820B847071ED4DDB9EB0709CCD00120DAF81B
S2144058300830DB1B3D44F61BCAF80830002B3FF40B
S21440584078AF002ED5D108F1080313E960009846DA
S2144058500833002EF9D032460A21284600F080F957
S214405860002800F0A1800130A0EB0509C2E72068BF
S2144058702369984202D863699F425DD2B84528BFE3
S214405880B8464246494600F0BBF9A3682268A3EBF7
S21440589008034244A36022600BB1C24679E7214622
S2144058A00098FFF7B3FC002892D1C24671E75A46EB
S2144058B0294600F0A5F9A2682368A2EB0B025B44D8
S2144058C0A2602360AFE72068B846BA46BB4655E7B5
